:100000007BC0FECFFDCFFCCFFBCFFACFF9CFF8CF2F
:100010001BC1E6C0F5CFF4CFF3CFF2CFF1CFF0CFD5
:10002000EFCFEECFEDCF1027E80364000A00010008
:10003000001000011000010000000000000000009E
:10004000000046000A000009121B232B333B4248E4
:100050004E53585C5F6163646463615F5C58534EE8
:1000600048423B332B231B12090000000000000014
:100070000000000000000000000000000000000080
:100080000000000000000000000000000000091255
:100090001B232B333B42484E53585C5F61636464BF
:1000A00063615F5C58534E48423B332B231B12095C
:1000B0004672657175656E6379202530336400443E
:1000C000757479206379636C652025303364000092
:1000D00080C00A00040038000100600142000100F5
:1000E000700144002300780146004600BE016A000A
:1000F00002001602D0000000F894EE27ECBBF1E0FD
:10010000FBBFEBBFE5BF8DE0A2E0BB27ED938A9577
:10011000E9F780E094E0A0E6ED930197E9F7E2EDDE
:10012000F0E085919591009761F0A591B5910590CA
:100130001590BF01F00105900D920197E1F7FB01C9
:10014000F0CFEFE5EDBFE4E0EEBFC0E6D1E000C0E8
:100150003DD0FED0A0E170D31CD023D078941ED126
:10016000A1E0B0E07AD102D0FACFFFCFA7D3E0EB85
:10017000F0E0A9D3ABD3B3D3A0E0B8D39FD3EFEBD8
:10018000F0E0A1D3B7D366277727A9D3A1E0AED3F8
:100190000895E9B7EE7FE9BFE2E0E3BFECE9E2BF33
:1001A0000895ADD3E0EAEFBDEFB5E260EFBDEEB587
:1001B000E861EEBDEEB5E160EEBDE92DF070E7BDA2
:1001C000E82DE6BDE9B7E460E9BF0895EFE1E7BBDC
:1001D000E0E0E8BBE1BBEFEFE2BBE0E0E4BB0895A9
:1001E000AA93BA93EA93FA93EFB7EA93ECE9E2BFE2
:1001F000E1E0F0E0EA15FB0519F4ACE6B1E08DD3DF
:10020000E1E0F0E0EC15FD0519F4AEE6B1E085D3D0
:10021000A0916401B0916501119719F4A8E6B1E0CD
:100220007CD3A0916601B0916701119719F4AAE6F9
:10023000B1E073D3A6E7B1E070D3E991EFBFF991D4
:10024000E991B991A99118950A921A929A93AA9351
:10025000BA93EA93FA93EFB7EA9365D3A1E1B0E0DA
:10026000AE1BBF0BA0937201B09373015CD3719668
:10027000E0937401F0937501E0917201F0917301C4
:100280005DD3AE17BF0770F0E0917401F091750176
:1002900055D3EA17FB0730F056D3E858FE4FA0813C
:1002A000A03019F4EFB5EF7702C0EFB5E068EFBD0D
:1002B0004FD3E03019F4EFB5EF7D02C0EFB5E06247
:1002C000EFBD4BD340D3E858FE4FE081F0E0AED312
:1002D0002F0143D33DD3F0E0A9D33F01E52DF070CA
:1002E000EBBDE42DEABDE72DF070E9BDE62DE8BDDC
:1002F00025D3939710F4B29B01C003C0C09AC39852
:1003000001C0C0981BD3A734E0E0BE0728F416D381
:10031000939710F0B19B01C003C0C098C39A01C06D
:10032000C398A4E0B2E0F9D209D3A634E0E0BE0756
:1003300028F0E0E0E0930402E0930502E991EFBFCA
:10034000F991E991B991A99199911990099018950C
:10035000E0E4E7B9E7E8E6B9089505D3E7D3EA8131
:10036000FB81E770F070EA83FB83E7B1E87FAA8145
:10037000EA2BE7B9369A3699FECF04B11127E5B1D9
:10038000FE2FE0E00E0F1F1F083EE3E01E0710F0F7
:1003900008EE13E0F801D1D3249608952897A1E040
:1003A000E5D2EC83FD836E837F83E9D2A530E0E064
:1003B000BE07E0E08E07E0E09E0728F4E5E0F0E00D
:1003C00060E070E00DC0DBD2A036E0E0BE07E0E008
:1003D0008E07E0E09E0740F0EFE5F0E060E070E0BF
:1003E000EC83FD836E837F83EC81FD81E09370015C
:1003F000F0937101A0E0BAD28BD3C6D2A130E0E075
:10040000BE07E0E08E07E0E09E0728F4E1E0F0E0C0
:1004100060E070E00DC0B8D2AC34E0E0BE07E0E0D0
:100420008E07E0E09E0728F0EBE4F0E060E070E08B
:100430006FD364D3E0936001F09361016093620134
:10044000709363015CD2F4013197EF2FF0E0E7BDC8
:10045000E82DE150E6BD2896089585D2EDE9E2BF8A
:10046000E9B7E160E9BFE0E0E0937601E09377016E
:10047000E881F981A0917601B0917701AE17BF07AD
:10048000B8F3E9B7EE7FE9BF99C16DD24FD37ED201
:1004900012962CD33097F1F079D27BD28F0130971E
:1004A00061F00230E0E01E0770F0F80131978F0133
:1004B000AA81BB811496ED93FC9368D212962DD23B
:1004C0003197AC81A08362D211D3FF2312F05ED2A8
:1004D00024D205C05BD2EFEFFFEFED93FC932DD359
:1004E0002596089540D226971DD310E0AC85BD8592
:1004F000E0E0F0E0ED93FC93EA89FB893196EA8B2A
:10050000FB8B3197E4912E2FE03009F4FEC0E12FF0
:10051000E03031F4253211F411E001C03DD2F4C0D5
:10052000E130A1F4253211F437D2EDC012E040E001
:1005300000E02D3211F401E0E7C02B3211F44BE260
:10054000E3C0203211F440E2DFC002C0E23039F4EF
:1005500050E013E0203311F40068D6C003C0E3304C
:1005600009F0D2C0203310F02A3308F007C0AAE007
:100570005A9F502DE22FE0535E0FC6C0E22FE336A4
:1005800039F411D213D20FD2A481AA9313D2BBC0D3
:10059000E33731F415D216D218D279D11E2F08C004
:1005A000E03751F40DD20ED210D27CD11E2F08604C
:1005B00002600F7730E02EC0E43611F0E93611F416
:1005C000046002C0E53729F4E6E2F0E003D215E06A
:1005D0000BC0E83511F4086003C0E83709F093C098
:1005E000E0E3F0E0F7D114E002FF11C0E9D1EAD175
:1005F000F4D1AB85AA232AF4EA85FB8513D2EDD189
:100600004DE2403011F01F5F01C00B7F03C0D8D115
:10061000D9D1E3D100FD10C0151770F407FF08C051
:1006200002FF04C00B7F242F115001C020E301C042
:1006300020E2B2D15150F0CF312F01FF15C0303040
:1006400091F003FF05C0EE81FF812591C3D105C064
:10065000AE81BF812D91AE83BF839ED1503009F012
:1006600051503150ECCF46C020E3EE81FF8142D2A1
:10067000E887F987EE81FF813296ACD1E885F9856C
:10068000AA85BB85AE17BF0748F02F5FA885B9853F
:10069000EA85FB85EA1BFB0BA0D1F0CF2A3328F0BB
:1006A00003FF02C0295F01C0295D04FD19C0213389
:1006B00020F4A885B985119709F409C0531710F0E3
:1006C00000FF01C011C020E207FF0AC020E3006163
:1006D00002FF06C00B7F4A936DD1503009F0515094
:1006E0005BD1503009F051503150A885B98512972F
:1006F00008F0BACF00FF07C0503029F05150E0E2B7
:10070000EA9358D1F9CF10E0F7CEAC85BD85EED194
:1007100010D264960895FF92F82E269705D260D1E4
:10072000309719F4EFEFFFEF1CC0DE01169676D17B
:100730008D0156D14FD1E0E0E887E987DE011A96B6
:100740006DD1D4D1C0D01A930A93E5E4F2E0BBD0C6
:10075000DE011A96C7DE9F01AE81BF81E0E0EC9317
:10076000F901E9D12A96FF900895AA93E2B3EF70B8
:10077000AE2FE881E07FEA2BE2BB37D1939A35D1E7
:10078000939833D182C0AA93A881EFDFE881E295E4
:10079000E883A881EADF85E88A95F1F776C0AA9315
:1007A000E881F0E0EA5EFD4FE081A981AE0FEBDF6A
:1007B000E981E0931A02E881E0931B0222960895F2
:1007C000A2E017D1ACE0DFDFA1E013D1E0E0E093DD
:1007D0001B02E0931A020895AA93A881AA3031F06F
:1007E000E0911C02A0911A02AE1760F0E0E0EA93DB
:1007F000A0911B02AF5FA0931B02D1DFA881AA309A
:1008000009F443C0E0911A02EF5FE0931A02919A53
:10081000A881B9DF919839C0A6D01A93A981BA816D
:10082000ED91A983BA831E2FE03019F0A12FD4DFF8
:10083000F5CF188123960895AA93E1B3E06FE1BB49
:100840008B9A899A8A9A939891989298E881E093E2
:100850001C02E058E0931802E881E054E09319028A
:10086000A4E1B0E0D1D0C9D0C8D0C7D0A0E27DDF2C
:1008700088EC90E00197F1F7A8E285DFA4E083DF40
:10088000A5E881DFA6E07FDF9BDF219608956BD08E
:10089000A991B991EE27FF276D91662311F031964A
:1008A000FBCF089560D0AA27BB27E991F991059065
:1008B000002011F01196FBCFFD010895E6E0F2E073
:1008C000FA93EA930895FA93EA930895E091600108
:1008D000F0916101609162017091630108951DD1F1
:1008E00084E019DF2896E0E0EA93089558DFA6E057
:1008F000B2E092CFE0917001F09171010895E6DFCE
:10090000A6E4B0E080E090E099D0A0E0B2E18AE710
:1009100090E0C7D031974F010895ED91FD91319648
:10092000FE93EE930895E6DFF695E795A3E2B0E037
:100930007DD0DF01E4E6F0E0A1D00895A0910402AB
:10094000B09105020895E0910402F0910502089526
:10095000FADFE254FE4FE0810895D401E4E6F0E0CE
:100960008DD0DF010895BA93AA930895B0E0F5DC25
:10097000DF01EAE0F0E082D0662777270895AC81B6
:10098000BD818E819F810895BED00895AA81BB81CB
:1009900008951496ABD008952A93AD85BE85EF8552
:1009A000F88909950895E889F98908953497E88BBD
:1009B000F98B0895AD85BE85EF85F8890995089571
:1009C000F2DFF4CFA889B989E4CFEE83FF83AE814B
:1009D000BF810895EE83FF830895EA87FB8708951A
:1009E000DE011C961BD082D008958DE08A95F1F728
:1009F0000895C9DEA3E0B0E007C0A0E3B6DE88EC4E
:100A000090E00197F1F70895109639F080ED97E0A6
:100A10000197F1F7A8951197C9F708950024AF0D34
:100A2000B01D0895F195E195F0400895FA9FF02DDD
:100A3000EB9FF00DEA9FE02DF10D08957A9F702D48
:100A40006B9F700DF89F700DE99F700D6A9F602D70
:100A5000710DFB9F600D711DE89F600D711D882752
:100A6000FA9FF02D610D781FEB9FF00D611D781F2F
:100A7000EA9FE02DF10D681F781F089500241124CE
:100A800090E1AA0FBB1F001C111C0E1A1F0A18F4BC
:100A90000E0E1F1E01C0A1609A9599F7FD01D001AD
:100AA00008953F934F935F930024112444275527C3
:100AB00030E2AA0FBB1F881F991F001C111C441F86
:100AC000551F0E1A1F0A460B570B28F40E0E1F1E39
:100AD000461F571F01C0A1603A9559F7FD01BC019F
:100AE000D001CA015F914F913F910895ED91FC9122
:100AF000119708950590F491E02D0895E881F9810A
:100B00006A817B810895A881B9818A819B8108953A
:100B1000E883F9836A837B8308957A936A93FA93CF
:100B2000EA9308955A934A933A932A931A930A930D
:100B300008955D814C813B812A8119810881089546
:00000001FF
