:100000007AC0FECFFDCFFCCFFBCFFACFF9CFF8CF30
:1000100011C1DEC0F5CFF4CFF3CFF2CFF1CFF0CFE7
:10002000EFCFEECFEDCF1027E80364000A00010008
:10003000001000011000010046000A00C0F9A4B041
:10004000999282F880900009121B232B333B42487F
:100050004E53585C5F6163646463615F5C58534EE8
:1000600048423B332B231B12090000000000000014
:100070000000000000000000000000000000000080
:100080000000000000000000000000000000091255
:100090001B232B333B42484E53585C5F61636464BF
:1000A00063615F5C58534E48423B332B231B12095C
:1000B00000000000000000000000467265717565D8
:1000C0006E63792025303364004475747920637938
:1000D000636C652025303364000080C0010060013E
:1000E0003800010070013A000A000400B00002006C
:1000F0008401DA000000F894EE27ECBBF1E0FBBFCE
:10010000EBBFE5BFF8E1F1BDE1BD8DE0A2E0BB27AB
:10011000ED938A95E9F780E094E0A0E6ED930197EE
:10012000E9F7ECEDF0E085919591009761F0A591EC
:10013000B59105901590BF01F00105900D920197C2
:10014000E1F7FB01F0CFEFE5EDBFE4E0EEBFC0E685
:10015000D1E000C033D06FD0E0E1EA9302D325D0E4
:100160002CD078948DD03DD33FD3F9D002D0FACFA4
:10017000FFCF3DD3EAEBF0E037D33CD344D3E0E00C
:10018000EA93A2D234D3DED232D3E9ECF0E02CD31E
:10019000E0917001F09171016627772734D3E1E097
:1001A000EA9392D224D3CED20895E9B7EE7FE9BF85
:1001B000E2E0E3BFECE9E2BF08950895EFE1E7BBB9
:1001C000E0E0E8BBE1BBEFEFE2BBE0E0E4BB0895B9
:1001D000AA93BA93EA93FA93EFB7EA93ECE9E2BFF2
:1001E00000D3EA15FB0519F4ACE6B1E013D3F9D25C
:1001F000EC15FD0519F4AEE6B1E00CD3A091640155
:10020000B0916501119719F4A8E6B1E003D3A0916C
:100210006601B0916701119719F4AAE6B1E0FAD22C
:10022000A2E7B1E0F7D2E991EFBFF991E991B99175
:10023000A99118951895E0E4E7B9E7E8E6B90895BB
:10024000CDD3EA81FB81E770F070EA83FB83E7B1ED
:10025000E87FAA81EA2BE7B9369A3699FECF04B136
:100260001127E5B1FE2FE0E00E0F1F1F083EE3E06F
:100270001E0710F008EE13E0F801B7D32496089596
:100280002897AFD2CDD2EC83FD836E837F83D1D20A
:10029000A530E0E0BE07E0E08E07E0E09E0728F42E
:1002A000E5E0F0E060E070E00DC0C3D2A036E0E031
:1002B000BE07E0E08E07E0E09E0740F0EFE5F0E0EB
:1002C00060E070E0EC83FD836E837F83EC81FD81D1
:1002D000E0937001F0937101E0E0F0E0A1D270D3FF
:1002E000ADD2A130E0E0BE07E0E08E07E0E09E077F
:1002F00028F4E1E0F0E060E070E00DC09FD2AC34A3
:10030000E0E0BE07E0E08E07E0E09E0728F0EBE4C7
:10031000F0E060E070E054D349D3E0936001F093E3
:100320006101609362017093630164D2A6E4B0E05E
:1003300080E090E0DBD2A0E0B2E18AE790E009D370
:10034000E150F040604070404F01F4013197EF2FD1
:10035000F0E0E7BDF4013197E6BD28960895EDE998
:10036000E2BFE9B7E160E9BFE0E0E0937201E0934A
:100370007301E881F981A0917201B0917301AE1708
:10038000BF07B8F3E9B7EE7FE9BFACC127D358D2B6
:10039000129604D33097F1F053D255D28F01309793
:1003A00061F00230E0E01E07A0F0F80131978F0104
:1003B000AA81BB811496ED93FC9342D212962AD265
:1003C0003197AC81A0833CD2E9D2FF2312F038D21E
:1003D00021D205C035D2EFEFFFEFED93FC9305D3AB
:1003E000259608952697F6D210E0AC85BD85E0E00D
:1003F000F0E0ED93FC93EA89FB893196EA8BFB8B65
:100400003197E4912E2FE03009F4FEC0E12FE03067
:1004100031F4253211F411E001C018D2F4C0E130FA
:10042000A1F4253211F412D2EDC012E040E000E058
:100430002D3211F401E0E7C02B3211F44BE2E3C09E
:10044000203211F440E2DFC002C0E23039F450E063
:1004500013E0203311F40068D6C003C0E33009F084
:10046000D2C0203310F02A3308F007C0AAE05A9F08
:10047000502DE22FE0535E0FC6C0E22FE33639F471
:10048000EDD1EFD1EBD1A481AA93EFD1BBC0E3377B
:1004900031F4F2D1F3D1F5D18FD11E2F08C0E0375E
:1004A00051F4EAD1EBD1EDD191D11E2F0860026059
:1004B0000F7730E02EC0E43611F0E93611F4046015
:1004C00002C0E53729F4E6E2F0E0DED115E00BC02A
:1004D000E83511F4086003C0E83709F093C0E0E3A1
:1004E000F0E0D2D114E002FF11C0C6D1C7D1CFD104
:1004F000AB85AA232AF4EA85FB85F4D1C8D14DE265
:10050000403011F01F5F01C00B7F03C0B5D1B6D1E1
:10051000BED100FD10C0151770F407FF08C002FF20
:1005200004C00B7F242F115001C020E301C020E242
:100530008DD15150F0CF312F01FF15C0303091F0E7
:1005400003FF05C0EE81FF8125919ED105C0AE81DC
:10055000BF812D91AE83BF8379D1503009F05150C6
:100560003150ECCF46C020E3EE81FF811BD2E887FB
:10057000F987EE81FF81329687D1E885F985AA85D2
:10058000BB85AE17BF0748F02F5FA885B985EA8500
:10059000FB85EA1BFB0B7BD1F0CF2A3328F003FF4E
:1005A00002C0295F01C0295D04FD19C0213320F478
:1005B000A885B985119709F409C0531710F000FFF9
:1005C00001C011C020E207FF0AC020E3006102FF62
:1005D00006C00B7F4A9349D1503009F0515036D1B3
:1005E000503009F051503150A885B985129708F064
:1005F000BACF00FF07C0503029F05150E0E2EA9333
:1006000034D1F9CF10E0F7CEAC85BD85C7D1E9D1A3
:1006100064960895FF92F82E2697DED13BD130974D
:1006200019F4EFEFFFEF1DC0DE01169657D18D01D3
:1006300031D12AD1E0E0E887E987DE011A964ED170
:10064000ADD1D2D01A930A93E6ECF1E0CDD0FE0101
:100650003A96CAD0C7DE9F01AE81BF81E0E0EC933D
:10066000F901C1D12A96FF900895E881E07111F057
:10067000949A01C09498E881E07211F0959A01C0B3
:100680009598E881E07411F0969A01C09698E881F7
:10069000E07811F0979A01C0979885E08A95F1F774
:1006A000939A8DE08A95F1F793988DE08A95F1F70A
:1006B00081C0E881F4D0E881E295E883E881EFD059
:1006C00085E88A95F1F776C0E881F0E0EC57FE4FB7
:1006D000E081A981EA0FE5D0E981E0938801E88112
:1006E000E093890122960895E2E0DBD0DCD0ECE0D3
:1006F000D8D0E1E0D6D0D7D0E0E0E0938901E09314
:1007000088010895A881AA3031F0E0918A01A09172
:100710008801AE1768F0E0E0EA93E0918901EF5FAD
:10072000E0938901EA93D0DFA881AA3009F442C09E
:10073000E0918801EF5FE0938801919AE881B1D060
:10074000919838C01A93A981BA81ED91A983BA838F
:100750001E2FE03019F01A93D5DFF5CF18812396BC
:1007600008958C9A8D9A8E9A8F9A8B9A899A8A9AE2
:10077000939891989298E881E0938A01E058E093E9
:100780008601E881E054E0938701E4E1F0E02CD0B9
:1007900099D0E0E384D08BD08AD08FD0E0E27FD0B4
:1007A0008CD0E8E27ED0E4E07CD0E5E87AD0E6E0E8
:1007B00078D09ADF21960895A991B991EE27FF2765
:1007C0006D91662311F03196FBCF0895AA27BB27C0
:1007D000E991F9910590002011F01196FBCFFD01F0
:1007E0000895E1E0F0E00895FA93EA930895E4E7CC
:1007F000F1E0FACFE0916001F09161016091620156
:10080000709163010895E1D084E004DF2896E0E070
:10081000EA930895ED91FD913196FE93EE9308953C
:10082000E3DF0EDDDF01EAE0F0E080D06627772726
:100830000895AC81BD818E819F810895BCD00895BB
:10084000AA81BB8108951496A9D008952A93ED85B5
:10085000FE85CADFE989FA8909950895E889F98949
:1008600008953497E88BF98B0895ED85FE85BCDFFC
:10087000E989FA8909950895F1DFF3CFA889B98943
:10088000E2CFEE83FF83B0CFEE83FF830895EA8744
:10089000FB870895DE011C9621D080D00895EA934D
:1008A000E4CEEA9306CFE3E0F0E09EDF0BC088ECF5
:1008B00090E00197F1F7E0E3F2CF88EC90E0019748
:1008C000F1F70895E991F991309639F080ED97E0CC
:1008D0000197F1F7A8953197C9F708950024AF0D56
:1008E000B01D0895F195E195F04008957A9F702D1F
:1008F0006B9F700DF89F700DE99F700D6A9F602DC2
:10090000710DFB9F600D711DE89F600D711D8827A3
:10091000FA9FF02D610D781FEB9FF00D611D781F80
:10092000EA9FE02DF10D681F781F0895002411241F
:1009300090E1AA0FBB1F001C111C0E1A1F0A18F40D
:100940000E0E1F1E01C0A1609A9599F7FD01D001FE
:1009500008953F934F935F93002411244427552714
:1009600030E2AA0FBB1F881F991F001C111C441FD7
:10097000551F0E1A1F0A460B570B28F40E0E1F1E8A
:10098000461F571F01C0A1603A9559F7FD01BC01F0
:10099000D001CA015F914F913F910895ED91FC9173
:1009A000119708950590F491E02D0895E881F9815B
:1009B0006A817B810895A881B9818A819B8108958C
:1009C000E883F9836A837B8308957A936A93FA9321
:1009D000EA9308955A934A933A932A931A930A935F
:1009E00008955D814C813B812A8119810881089598
:00000001FF
